{
  "contractName": "Store",
  "abi": [
    {
      "constant": true,
      "inputs": [],
      "name": "storeName",
      "outputs": [
        {
          "name": "",
          "type": "bytes32"
        }
      ],
      "payable": false,
      "stateMutability": "view",
      "type": "function"
    },
    {
      "constant": false,
      "inputs": [],
      "name": "renounceOwnership",
      "outputs": [],
      "payable": false,
      "stateMutability": "nonpayable",
      "type": "function"
    },
    {
      "constant": true,
      "inputs": [
        {
          "name": "",
          "type": "uint256"
        }
      ],
      "name": "products",
      "outputs": [
        {
          "name": "id",
          "type": "uint256"
        },
        {
          "name": "name",
          "type": "bytes32"
        },
        {
          "name": "price",
          "type": "uint256"
        },
        {
          "name": "stock",
          "type": "uint256"
        }
      ],
      "payable": false,
      "stateMutability": "view",
      "type": "function"
    },
    {
      "constant": false,
      "inputs": [],
      "name": "destroy",
      "outputs": [],
      "payable": false,
      "stateMutability": "nonpayable",
      "type": "function"
    },
    {
      "constant": true,
      "inputs": [],
      "name": "owner",
      "outputs": [
        {
          "name": "",
          "type": "address"
        }
      ],
      "payable": false,
      "stateMutability": "view",
      "type": "function"
    },
    {
      "constant": true,
      "inputs": [],
      "name": "balance",
      "outputs": [
        {
          "name": "",
          "type": "uint256"
        }
      ],
      "payable": false,
      "stateMutability": "view",
      "type": "function"
    },
    {
      "constant": false,
      "inputs": [
        {
          "name": "_newOwner",
          "type": "address"
        }
      ],
      "name": "transferOwnership",
      "outputs": [],
      "payable": false,
      "stateMutability": "nonpayable",
      "type": "function"
    },
    {
      "constant": false,
      "inputs": [
        {
          "name": "_recipient",
          "type": "address"
        }
      ],
      "name": "destroyAndSend",
      "outputs": [],
      "payable": false,
      "stateMutability": "nonpayable",
      "type": "function"
    },
    {
      "inputs": [
        {
          "name": "_owner",
          "type": "address"
        },
        {
          "name": "_storeName",
          "type": "bytes32"
        }
      ],
      "payable": false,
      "stateMutability": "nonpayable",
      "type": "constructor"
    },
    {
      "payable": true,
      "stateMutability": "payable",
      "type": "fallback"
    },
    {
      "anonymous": false,
      "inputs": [
        {
          "indexed": false,
          "name": "productId",
          "type": "uint256"
        }
      ],
      "name": "NewProductAdded",
      "type": "event"
    },
    {
      "anonymous": false,
      "inputs": [
        {
          "indexed": false,
          "name": "productId",
          "type": "uint256"
        },
        {
          "indexed": false,
          "name": "remainingStock",
          "type": "uint256"
        }
      ],
      "name": "ProductQuantityAdded",
      "type": "event"
    },
    {
      "anonymous": false,
      "inputs": [
        {
          "indexed": false,
          "name": "productId",
          "type": "uint256"
        },
        {
          "indexed": false,
          "name": "remainingStock",
          "type": "uint256"
        }
      ],
      "name": "ProductRemoved",
      "type": "event"
    },
    {
      "anonymous": false,
      "inputs": [
        {
          "indexed": false,
          "name": "productId",
          "type": "uint256"
        },
        {
          "indexed": false,
          "name": "quantity",
          "type": "uint256"
        }
      ],
      "name": "ProductQuantityAvailable",
      "type": "event"
    },
    {
      "anonymous": false,
      "inputs": [
        {
          "indexed": false,
          "name": "productId",
          "type": "uint256"
        },
        {
          "indexed": false,
          "name": "remainingStock",
          "type": "uint256"
        }
      ],
      "name": "ProductPurchaseSuccessful",
      "type": "event"
    },
    {
      "anonymous": false,
      "inputs": [
        {
          "indexed": false,
          "name": "productId",
          "type": "uint256"
        },
        {
          "indexed": false,
          "name": "remainingStock",
          "type": "uint256"
        }
      ],
      "name": "ProductPurchaseFailed",
      "type": "event"
    },
    {
      "anonymous": false,
      "inputs": [
        {
          "indexed": true,
          "name": "previousOwner",
          "type": "address"
        }
      ],
      "name": "OwnershipRenounced",
      "type": "event"
    },
    {
      "anonymous": false,
      "inputs": [
        {
          "indexed": true,
          "name": "previousOwner",
          "type": "address"
        },
        {
          "indexed": true,
          "name": "newOwner",
          "type": "address"
        }
      ],
      "name": "OwnershipTransferred",
      "type": "event"
    },
    {
      "constant": true,
      "inputs": [],
      "name": "getStoreName",
      "outputs": [
        {
          "name": "",
          "type": "bytes32"
        }
      ],
      "payable": false,
      "stateMutability": "view",
      "type": "function"
    },
    {
      "constant": false,
      "inputs": [
        {
          "name": "id",
          "type": "uint256"
        },
        {
          "name": "name",
          "type": "bytes32"
        },
        {
          "name": "price",
          "type": "uint256"
        },
        {
          "name": "stock",
          "type": "uint256"
        }
      ],
      "name": "addNewProduct",
      "outputs": [
        {
          "name": "success",
          "type": "bool"
        }
      ],
      "payable": false,
      "stateMutability": "nonpayable",
      "type": "function"
    },
    {
      "constant": false,
      "inputs": [
        {
          "name": "id",
          "type": "uint256"
        },
        {
          "name": "quantity",
          "type": "uint256"
        }
      ],
      "name": "addProductStock",
      "outputs": [
        {
          "name": "success",
          "type": "bool"
        }
      ],
      "payable": false,
      "stateMutability": "nonpayable",
      "type": "function"
    },
    {
      "constant": false,
      "inputs": [
        {
          "name": "id",
          "type": "uint256"
        },
        {
          "name": "quantity",
          "type": "uint256"
        }
      ],
      "name": "removeProduct",
      "outputs": [
        {
          "name": "success",
          "type": "bool"
        }
      ],
      "payable": false,
      "stateMutability": "nonpayable",
      "type": "function"
    },
    {
      "constant": true,
      "inputs": [
        {
          "name": "id",
          "type": "uint256"
        }
      ],
      "name": "getProduct",
      "outputs": [
        {
          "name": "name",
          "type": "bytes32"
        },
        {
          "name": "price",
          "type": "uint256"
        },
        {
          "name": "stock",
          "type": "uint256"
        }
      ],
      "payable": false,
      "stateMutability": "view",
      "type": "function"
    },
    {
      "constant": false,
      "inputs": [
        {
          "name": "id",
          "type": "uint256"
        },
        {
          "name": "quantity",
          "type": "uint256"
        }
      ],
      "name": "checkProductAvailability",
      "outputs": [
        {
          "name": "available",
          "type": "bool"
        }
      ],
      "payable": false,
      "stateMutability": "nonpayable",
      "type": "function"
    },
    {
      "constant": false,
      "inputs": [
        {
          "name": "id",
          "type": "uint256"
        },
        {
          "name": "quantity",
          "type": "uint256"
        }
      ],
      "name": "payProduct",
      "outputs": [
        {
          "name": "success",
          "type": "bool"
        }
      ],
      "payable": true,
      "stateMutability": "payable",
      "type": "function"
    },
    {
      "constant": true,
      "inputs": [],
      "name": "getStoreBalance",
      "outputs": [
        {
          "name": "",
          "type": "uint256"
        }
      ],
      "payable": false,
      "stateMutability": "view",
      "type": "function"
    }
  ],
  "bytecode": "0x608060405234801561001057600080fd5b506040516040806110598339810180604052810190808051906020019092919080519060200190929190505050336000806101000a81548173ffffffffffffffffffffffffffffffffffffffff021916908373ffffffffffffffffffffffffffffffffffffffff16021790555081600160006101000a81548173ffffffffffffffffffffffffffffffffffffffff021916908373ffffffffffffffffffffffffffffffffffffffff16021790555080600281600019169055505050610f7f806100da6000396000f3006080604052600436106100e6576000357c0100000000000000000000000000000000000000000000000000000000900463ffffffff1680630f1298d9146100eb5780633c9d37c51461013a578063521936e61461017c5780635287d535146101af578063715018a6146101fe5780637acc0b201461021557806383197ef0146102735780638da5cb5b1461028a578063947fe3ab146102e1578063b69ef8a814610348578063b9db15b414610373578063c8714224146103ca578063d460a4ca14610419578063f05fae681461044c578063f2fde38b14610477578063f5074f41146104ba575b600080fd5b3480156100f757600080fd5b5061012060048036038101908080359060200190929190803590602001909291905050506104fd565b604051808215151515815260200191505060405180910390f35b6101626004803603810190808035906020019092919080359060200190929190505050610571565b604051808215151515815260200191505060405180910390f35b34801561018857600080fd5b50610191610687565b60405180826000191660001916815260200191505060405180910390f35b3480156101bb57600080fd5b506101e4600480360381019080803590602001909291908035906020019092919050505061068d565b604051808215151515815260200191505060405180910390f35b34801561020a57600080fd5b506102136107ce565b005b34801561022157600080fd5b50610240600480360381019080803590602001909291905050506108d1565b60405180858152602001846000191660001916815260200183815260200182815260200194505050505060405180910390f35b34801561027f57600080fd5b50610288610901565b005b34801561029657600080fd5b5061029f610997565b604051808273ffffffffffffffffffffffffffffffffffffffff1673ffffffffffffffffffffffffffffffffffffffff16815260200191505060405180910390f35b3480156102ed57600080fd5b5061032e60048036038101908080359060200190929190803560001916906020019092919080359060200190929190803590602001909291905050506109bd565b604051808215151515815260200191505060405180910390f35b34801561035457600080fd5b5061035d610aec565b6040518082815260200191505060405180910390f35b34801561037f57600080fd5b5061039e60048036038101908080359060200190929190505050610af2565b604051808460001916600019168152602001838152602001828152602001935050505060405180910390f35b3480156103d657600080fd5b506103ff6004803603810190808035906020019092919080359060200190929190505050610b49565b604051808215151515815260200191505060405180910390f35b34801561042557600080fd5b5061042e610c4e565b60405180826000191660001916815260200191505060405180910390f35b34801561045857600080fd5b50610461610c58565b6040518082815260200191505060405180910390f35b34801561048357600080fd5b506104b8600480360381019080803573ffffffffffffffffffffffffffffffffffffffff169060200190929190505050610cbe565b005b3480156104c657600080fd5b506104fb600480360381019080803573ffffffffffffffffffffffffffffffffffffffff169060200190929190505050610d26565b005b6000816004600085815260200190815260200160002060030154101515610566577f092a207aa15df35a9fd0687f2698d59420325746b96aff26caf174967d6e2a5a8383604051808381526020018281526020019250505060405180910390a16001905061056b565b600090505b92915050565b600061057b610f27565b60006004600086815260200190815260200160002060806040519081016040529081600082015481526020016001820154600019166000191681526020016002820154815260200160038201548152505091506105e5848360400151610d9b90919063ffffffff16565b90508034101580156105fb575083826060015110155b1561067a5761061534600354610dd390919063ffffffff16565b5061062d848360600151610def90919063ffffffff16565b507f8822d705ed7af5f1ee8352bdc64a282c883a6158bde34619a31afdf8cd3ec9f1858360600151604051808381526020018281526020019250505060405180910390a16001925061067f565b600092505b505092915050565b60025481565b6000610697610f27565b6000600160009054906101000a900473ffffffffffffffffffffffffffffffffffffffff1673ffffffffffffffffffffffffffffffffffffffff163373ffffffffffffffffffffffffffffffffffffffff161415156106f557600080fd5b60046000868152602001908152602001600020608060405190810160405290816000820154815260200160018201546000191660001916815260200160028201548152602001600382015481525050915084826000015114156107c1578160600151905061076c8482610def90919063ffffffff16565b8260600181815250507fd647384cccbd8b477a7b02b9e866072937e9a23b473b9de13fc0c6cb1d392a0a858360600151604051808381526020018281526020019250505060405180910390a1600192506107c6565b600092505b505092915050565b600160009054906101000a900473ffffffffffffffffffffffffffffffffffffffff1673ffffffffffffffffffffffffffffffffffffffff163373ffffffffffffffffffffffffffffffffffffffff1614151561082a57600080fd5b6000809054906101000a900473ffffffffffffffffffffffffffffffffffffffff1673ffffffffffffffffffffffffffffffffffffffff167ff8df31144d9c2f0f6b59d69b8b98abd5459d07f2742c4df920b25aae33c6482060405160405180910390a260008060006101000a81548173ffffffffffffffffffffffffffffffffffffffff021916908373ffffffffffffffffffffffffffffffffffffffff160217905550565b60046020528060005260406000206000915090508060000154908060010154908060020154908060030154905084565b600160009054906101000a900473ffffffffffffffffffffffffffffffffffffffff1673ffffffffffffffffffffffffffffffffffffffff163373ffffffffffffffffffffffffffffffffffffffff1614151561095d57600080fd5b6000809054906101000a900473ffffffffffffffffffffffffffffffffffffffff1673ffffffffffffffffffffffffffffffffffffffff16ff5b600160009054906101000a900473ffffffffffffffffffffffffffffffffffffffff1681565b60006109c7610f27565b600160009054906101000a900473ffffffffffffffffffffffffffffffffffffffff1673ffffffffffffffffffffffffffffffffffffffff163373ffffffffffffffffffffffffffffffffffffffff16141515610a2357600080fd5b60806040519081016040528087815260200186600019168152602001858152602001848152509050610a5481610e08565b15610ade578060046000888152602001908152602001600020600082015181600001556020820151816001019060001916905560408201518160020155606082015181600301559050507f6770397cf8581b9596e7c96436ebe004d3324516d97996fbecd02970dc2cbd27866040518082815260200191505060405180910390a160019150610ae3565b600091505b50949350505050565b60035481565b60008060006004600085815260200190815260200160002060010154600460008681526020019081526020016000206002015460046000878152602001908152602001600020600301549250925092509193909250565b600080600160009054906101000a900473ffffffffffffffffffffffffffffffffffffffff1673ffffffffffffffffffffffffffffffffffffffff163373ffffffffffffffffffffffffffffffffffffffff16141515610ba857600080fd5b60046000858152602001908152602001600020600301549050610bd48382610dd390919063ffffffff16565b60046000868152602001908152602001600020600301819055507f6d455be53d3397d23e61c2a0c7e836e082be1ee47d776074f71f7121417041d2846004600087815260200190815260200160002060030154604051808381526020018281526020019250505060405180910390a1600191505092915050565b6000600254905090565b6000600160009054906101000a900473ffffffffffffffffffffffffffffffffffffffff1673ffffffffffffffffffffffffffffffffffffffff163373ffffffffffffffffffffffffffffffffffffffff16141515610cb657600080fd5b600354905090565b600160009054906101000a900473ffffffffffffffffffffffffffffffffffffffff1673ffffffffffffffffffffffffffffffffffffffff163373ffffffffffffffffffffffffffffffffffffffff16141515610d1a57600080fd5b610d2381610e2d565b50565b600160009054906101000a900473ffffffffffffffffffffffffffffffffffffffff1673ffffffffffffffffffffffffffffffffffffffff163373ffffffffffffffffffffffffffffffffffffffff16141515610d8257600080fd5b8073ffffffffffffffffffffffffffffffffffffffff16ff5b600080831415610dae5760009050610dcd565b8183029050818382811515610dbf57fe5b04141515610dc957fe5b8090505b92915050565b60008183019050828110151515610de657fe5b80905092915050565b6000828211151515610dfd57fe5b818303905092915050565b6000808260400151118015610e265750600082602001516000191614155b9050919050565b600073ffffffffffffffffffffffffffffffffffffffff168173ffffffffffffffffffffffffffffffffffffffff1614151515610e6957600080fd5b8073ffffffffffffffffffffffffffffffffffffffff166000809054906101000a900473ffffffffffffffffffffffffffffffffffffffff1673ffffffffffffffffffffffffffffffffffffffff167f8be0079c531659141344cd1fd0a4f28419497f9722a3daafe3b4186f6b6457e060405160405180910390a3806000806101000a81548173ffffffffffffffffffffffffffffffffffffffff021916908373ffffffffffffffffffffffffffffffffffffffff16021790555050565b6080604051908101604052806000815260200160008019168152602001600081526020016000815250905600a165627a7a72305820e2db6f83af2c1b2dde4b7ae7d309c4142cf271267abff3776beb278d0bb70dcb0029",
  "source": "pragma solidity ^0.4.24;\n\nimport 'zeppelin-solidity/contracts/math/SafeMath.sol';\nimport 'zeppelin-solidity/contracts/lifecycle/Destructible.sol';\n\ncontract Store is Destructible {\n\n    using SafeMath for uint;\n\n    address public owner;\n    bytes32 public storeName;\n    uint256 public balance;\n\n    mapping(uint => Product) public products;\n\n    /* Events */\n    event NewProductAdded(uint productId);\n    event ProductQuantityAdded(uint productId, uint remainingStock);\n    event ProductRemoved(uint productId, uint remainingStock );\n\n    event ProductQuantityAvailable(uint productId, uint quantity);\n    event ProductPurchaseSuccessful(uint productId, uint remainingStock);\n    event ProductPurchaseFailed(uint productId, uint remainingStock);\n\n\n    struct Product {\n        uint id;\n        bytes32 name;\n        uint price;\n        uint stock;\n    }\n\n    modifier onlyOwner {\n        require(msg.sender == owner);\n        _;\n    }\n\n    constructor(address _owner, bytes32 _storeName) public {\n        owner = _owner;\n        storeName = _storeName;\n    }\n\n    function getStoreName() public view returns (bytes32) {\n      return storeName;\n    }\n\n    function addNewProduct(uint id, bytes32 name, uint price, uint stock) public onlyOwner returns (bool success) {\n        Product memory newProduct = Product(id, name, price, stock);\n        if (isProductValid(newProduct)) {\n            products[id] = newProduct;\n            emit NewProductAdded(id);\n            return true;\n        }\n        return false;\n    }\n\n    function addProductStock(uint id, uint quantity) public onlyOwner returns (bool success) {\n        uint actualStock = products[id].stock;\n        products[id].stock = actualStock.add(quantity);\n        emit ProductQuantityAdded(id, products[id].stock);\n        return true;\n    }\n\n    function removeProduct(uint id, uint quantity) public onlyOwner returns (bool success){\n        Product memory productToRemove = products[id];\n        if (productToRemove.id == id) {\n            uint actualStock = productToRemove.stock;\n            productToRemove.stock = actualStock.sub(quantity);\n            emit ProductRemoved(id, productToRemove.stock);\n            return true;\n        }\n        return false;\n    }\n\n    function getProduct(uint id) public view returns (bytes32 name, uint price, uint stock) {\n        return (products[id].name,\n                products[id].price,\n                products[id].stock);\n    }\n\n    function checkProductAvailability(uint id, uint quantity) public returns(bool available) {\n        if (products[id].stock >= quantity) {\n            emit ProductQuantityAvailable(id, quantity);\n            return true;\n        }\n        return false;\n    }\n\n    function payProduct(uint id, uint quantity) public payable returns (bool success) {\n        Product memory productToBuy = products[id];\n        uint totalPrice = productToBuy.price.mul(quantity);\n        if (msg.value >= totalPrice && productToBuy.stock >= quantity) {\n            balance.add(msg.value);\n            productToBuy.stock.sub(quantity);\n            emit ProductPurchaseSuccessful(id, productToBuy.stock);\n            return true;\n        }\n        return false;\n    }\n\n    function isProductValid(Product product) private pure returns (bool isValid) {\n        return (product.price > 0 && product.name != \"\");\n    }\n\n    function getStoreBalance() public onlyOwner view returns (uint256) {\n        return balance;\n    }\n\n    // Fallback function - Called if other functions don't match call or\n    // sent ether without data\n    // Typically, called when invalid data is sent\n    // Added so ether sent to this contract is reverted if the contract fails\n    // otherwise, the sender's money is transferred to contract\n    function() public payable {\n        revert();\n    }\n\n}\n",
  "sourcePath": "/Users/deboravilla/Desktop/rodrigo/StoreProject/contracts/Store.sol",
  "compiler": {
    "name": "solc",
    "version": "0.4.24+commit.e67f0147.Emscripten.clang"
  },
  "schemaVersion": "2.0.1",
  "updatedAt": "2018-08-26T12:31:24.463Z"
}