{
  "contractName": "StoreFactory",
  "abi": [
    {
      "constant": true,
      "inputs": [
        {
          "name": "",
          "type": "uint256"
        }
      ],
      "name": "allStores",
      "outputs": [
        {
          "name": "",
          "type": "address"
        }
      ],
      "payable": false,
      "stateMutability": "view",
      "type": "function"
    },
    {
      "inputs": [],
      "payable": false,
      "stateMutability": "nonpayable",
      "type": "constructor"
    },
    {
      "anonymous": false,
      "inputs": [
        {
          "indexed": true,
          "name": "store",
          "type": "address"
        },
        {
          "indexed": true,
          "name": "storeOwner",
          "type": "address"
        }
      ],
      "name": "LogStoreCreated",
      "type": "event"
    },
    {
      "constant": true,
      "inputs": [],
      "name": "getUserRole",
      "outputs": [
        {
          "name": "",
          "type": "bytes32"
        }
      ],
      "payable": false,
      "stateMutability": "view",
      "type": "function"
    },
    {
      "constant": false,
      "inputs": [
        {
          "name": "newAdmin",
          "type": "address"
        }
      ],
      "name": "addAdmin",
      "outputs": [
        {
          "name": "success",
          "type": "bool"
        }
      ],
      "payable": false,
      "stateMutability": "nonpayable",
      "type": "function"
    },
    {
      "constant": false,
      "inputs": [
        {
          "name": "newStoreOwner",
          "type": "address"
        }
      ],
      "name": "addStoreOwner",
      "outputs": [
        {
          "name": "success",
          "type": "bool"
        }
      ],
      "payable": false,
      "stateMutability": "nonpayable",
      "type": "function"
    },
    {
      "constant": false,
      "inputs": [
        {
          "name": "name",
          "type": "bytes32"
        }
      ],
      "name": "createStore",
      "outputs": [
        {
          "name": "",
          "type": "bool"
        }
      ],
      "payable": false,
      "stateMutability": "nonpayable",
      "type": "function"
    },
    {
      "constant": true,
      "inputs": [],
      "name": "getStores",
      "outputs": [
        {
          "name": "myStores",
          "type": "address[]"
        }
      ],
      "payable": false,
      "stateMutability": "view",
      "type": "function"
    }
  ],
  "bytecode": "0x608060405234801561001057600080fd5b5060016000803373ffffffffffffffffffffffffffffffffffffffff1673ffffffffffffffffffffffffffffffffffffffff16815260200190815260200160002060006101000a81548160ff021916908315150217905550611ad3806100776000396000f300608060405260043610610078576000357c0100000000000000000000000000000000000000000000000000000000900463ffffffff16806332cfc4841461007d5780635dc917f0146100ea578063704802751461015657806373a05d6a146101b15780639adeb5f1146101fa578063bf04a10d14610255575b600080fd5b34801561008957600080fd5b506100a860048036038101908080359060200190929190505050610288565b604051808273ffffffffffffffffffffffffffffffffffffffff1673ffffffffffffffffffffffffffffffffffffffff16815260200191505060405180910390f35b3480156100f657600080fd5b506100ff6102c6565b6040518080602001828103825283818151815260200191508051906020019060200280838360005b83811015610142578082015181840152602081019050610127565b505050509050019250505060405180910390f35b34801561016257600080fd5b50610197600480360381019080803573ffffffffffffffffffffffffffffffffffffffff169060200190929190505050610479565b604051808215151515815260200191505060405180910390f35b3480156101bd57600080fd5b506101e06004803603810190808035600019169060200190929190505050610597565b604051808215151515815260200191505060405180910390f35b34801561020657600080fd5b5061023b600480360381019080803573ffffffffffffffffffffffffffffffffffffffff1690602001909291905050506107ec565b604051808215151515815260200191505060405180910390f35b34801561026157600080fd5b5061026a61090f565b60405180826000191660001916815260200191505060405180910390f35b60038181548110151561029757fe5b906000526020600020016000915054906101000a900473ffffffffffffffffffffffffffffffffffffffff1681565b606060011515600160003373ffffffffffffffffffffffffffffffffffffffff1673ffffffffffffffffffffffffffffffffffffffff16815260200190815260200160002060009054906101000a900460ff16151514156103ec57600260003373ffffffffffffffffffffffffffffffffffffffff1673ffffffffffffffffffffffffffffffffffffffff1681526020019081526020016000208054806020026020016040519081016040528092919081815260200182805480156103e057602002820191906000526020600020905b8160009054906101000a900473ffffffffffffffffffffffffffffffffffffffff1673ffffffffffffffffffffffffffffffffffffffff1681526020019060010190808311610396575b50505050509050610476565b600380548060200260200160405190810160405280929190818152602001828054801561046e57602002820191906000526020600020905b8160009054906101000a900473ffffffffffffffffffffffffffffffffffffffff1673ffffffffffffffffffffffffffffffffffffffff1681526020019060010190808311610424575b505050505090505b90565b6000600115156000803373ffffffffffffffffffffffffffffffffffffffff1673ffffffffffffffffffffffffffffffffffffffff16815260200190815260200160002060009054906101000a900460ff1615151415156104d957600080fd5b600015156000808473ffffffffffffffffffffffffffffffffffffffff1673ffffffffffffffffffffffffffffffffffffffff16815260200190815260200160002060009054906101000a900460ff16151514151561053757600080fd5b60016000808473ffffffffffffffffffffffffffffffffffffffff1673ffffffffffffffffffffffffffffffffffffffff16815260200190815260200160002060006101000a81548160ff02191690831515021790555060019050919050565b60008060011515600160003373ffffffffffffffffffffffffffffffffffffffff1673ffffffffffffffffffffffffffffffffffffffff16815260200190815260200160002060009054906101000a900460ff1615151415156105f957600080fd5b6000602060ff161415156107e1573383610611610a3e565b808373ffffffffffffffffffffffffffffffffffffffff1673ffffffffffffffffffffffffffffffffffffffff168152602001826000191660001916815260200192505050604051809103906000f080158015610672573d6000803e3d6000fd5b509050600260003373ffffffffffffffffffffffffffffffffffffffff1673ffffffffffffffffffffffffffffffffffffffff1681526020019081526020016000208190806001815401808255809150509060018203906000526020600020016000909192909190916101000a81548173ffffffffffffffffffffffffffffffffffffffff021916908373ffffffffffffffffffffffffffffffffffffffff1602179055505060038190806001815401808255809150509060018203906000526020600020016000909192909190916101000a81548173ffffffffffffffffffffffffffffffffffffffff021916908373ffffffffffffffffffffffffffffffffffffffff160217905550503373ffffffffffffffffffffffffffffffffffffffff168173ffffffffffffffffffffffffffffffffffffffff167fdae5375df2ead639c8ea7cbad5c67cd5d757f3401fca26aa006da00fe1a0094860405160405180910390a3600191506107e6565b600091505b50919050565b6000600115156000803373ffffffffffffffffffffffffffffffffffffffff1673ffffffffffffffffffffffffffffffffffffffff16815260200190815260200160002060009054906101000a900460ff16151514151561084c57600080fd5b60001515600160008473ffffffffffffffffffffffffffffffffffffffff1673ffffffffffffffffffffffffffffffffffffffff16815260200190815260200160002060009054906101000a900460ff16151514156109055760018060008473ffffffffffffffffffffffffffffffffffffffff1673ffffffffffffffffffffffffffffffffffffffff16815260200190815260200160002060006101000a81548160ff0219169083151502179055506001905061090a565b600090505b919050565b600080339050600115156000808373ffffffffffffffffffffffffffffffffffffffff1673ffffffffffffffffffffffffffffffffffffffff16815260200190815260200160002060009054906101000a900460ff1615151415610995577f61646d696e0000000000000000000000000000000000000000000000000000009150610a3a565b60011515600160008373ffffffffffffffffffffffffffffffffffffffff1673ffffffffffffffffffffffffffffffffffffffff16815260200190815260200160002060009054906101000a900460ff1615151415610a16577f73746f72654f776e6572000000000000000000000000000000000000000000009150610a3a565b7f73686f707065720000000000000000000000000000000000000000000000000091505b5090565b60405161105980610a4f833901905600608060405234801561001057600080fd5b506040516040806110598339810180604052810190808051906020019092919080519060200190929190505050336000806101000a81548173ffffffffffffffffffffffffffffffffffffffff021916908373ffffffffffffffffffffffffffffffffffffffff16021790555081600160006101000a81548173ffffffffffffffffffffffffffffffffffffffff021916908373ffffffffffffffffffffffffffffffffffffffff16021790555080600281600019169055505050610f7f806100da6000396000f3006080604052600436106100e6576000357c0100000000000000000000000000000000000000000000000000000000900463ffffffff1680630f1298d9146100eb5780633c9d37c51461013a578063521936e61461017c5780635287d535146101af578063715018a6146101fe5780637acc0b201461021557806383197ef0146102735780638da5cb5b1461028a578063947fe3ab146102e1578063b69ef8a814610348578063b9db15b414610373578063c8714224146103ca578063d460a4ca14610419578063f05fae681461044c578063f2fde38b14610477578063f5074f41146104ba575b600080fd5b3480156100f757600080fd5b5061012060048036038101908080359060200190929190803590602001909291905050506104fd565b604051808215151515815260200191505060405180910390f35b6101626004803603810190808035906020019092919080359060200190929190505050610571565b604051808215151515815260200191505060405180910390f35b34801561018857600080fd5b50610191610687565b60405180826000191660001916815260200191505060405180910390f35b3480156101bb57600080fd5b506101e4600480360381019080803590602001909291908035906020019092919050505061068d565b604051808215151515815260200191505060405180910390f35b34801561020a57600080fd5b506102136107ce565b005b34801561022157600080fd5b50610240600480360381019080803590602001909291905050506108d1565b60405180858152602001846000191660001916815260200183815260200182815260200194505050505060405180910390f35b34801561027f57600080fd5b50610288610901565b005b34801561029657600080fd5b5061029f610997565b604051808273ffffffffffffffffffffffffffffffffffffffff1673ffffffffffffffffffffffffffffffffffffffff16815260200191505060405180910390f35b3480156102ed57600080fd5b5061032e60048036038101908080359060200190929190803560001916906020019092919080359060200190929190803590602001909291905050506109bd565b604051808215151515815260200191505060405180910390f35b34801561035457600080fd5b5061035d610aec565b6040518082815260200191505060405180910390f35b34801561037f57600080fd5b5061039e60048036038101908080359060200190929190505050610af2565b604051808460001916600019168152602001838152602001828152602001935050505060405180910390f35b3480156103d657600080fd5b506103ff6004803603810190808035906020019092919080359060200190929190505050610b49565b604051808215151515815260200191505060405180910390f35b34801561042557600080fd5b5061042e610c4e565b60405180826000191660001916815260200191505060405180910390f35b34801561045857600080fd5b50610461610c58565b6040518082815260200191505060405180910390f35b34801561048357600080fd5b506104b8600480360381019080803573ffffffffffffffffffffffffffffffffffffffff169060200190929190505050610cbe565b005b3480156104c657600080fd5b506104fb600480360381019080803573ffffffffffffffffffffffffffffffffffffffff169060200190929190505050610d26565b005b6000816004600085815260200190815260200160002060030154101515610566577f092a207aa15df35a9fd0687f2698d59420325746b96aff26caf174967d6e2a5a8383604051808381526020018281526020019250505060405180910390a16001905061056b565b600090505b92915050565b600061057b610f27565b60006004600086815260200190815260200160002060806040519081016040529081600082015481526020016001820154600019166000191681526020016002820154815260200160038201548152505091506105e5848360400151610d9b90919063ffffffff16565b90508034101580156105fb575083826060015110155b1561067a5761061534600354610dd390919063ffffffff16565b5061062d848360600151610def90919063ffffffff16565b507f8822d705ed7af5f1ee8352bdc64a282c883a6158bde34619a31afdf8cd3ec9f1858360600151604051808381526020018281526020019250505060405180910390a16001925061067f565b600092505b505092915050565b60025481565b6000610697610f27565b6000600160009054906101000a900473ffffffffffffffffffffffffffffffffffffffff1673ffffffffffffffffffffffffffffffffffffffff163373ffffffffffffffffffffffffffffffffffffffff161415156106f557600080fd5b60046000868152602001908152602001600020608060405190810160405290816000820154815260200160018201546000191660001916815260200160028201548152602001600382015481525050915084826000015114156107c1578160600151905061076c8482610def90919063ffffffff16565b8260600181815250507fd647384cccbd8b477a7b02b9e866072937e9a23b473b9de13fc0c6cb1d392a0a858360600151604051808381526020018281526020019250505060405180910390a1600192506107c6565b600092505b505092915050565b600160009054906101000a900473ffffffffffffffffffffffffffffffffffffffff1673ffffffffffffffffffffffffffffffffffffffff163373ffffffffffffffffffffffffffffffffffffffff1614151561082a57600080fd5b6000809054906101000a900473ffffffffffffffffffffffffffffffffffffffff1673ffffffffffffffffffffffffffffffffffffffff167ff8df31144d9c2f0f6b59d69b8b98abd5459d07f2742c4df920b25aae33c6482060405160405180910390a260008060006101000a81548173ffffffffffffffffffffffffffffffffffffffff021916908373ffffffffffffffffffffffffffffffffffffffff160217905550565b60046020528060005260406000206000915090508060000154908060010154908060020154908060030154905084565b600160009054906101000a900473ffffffffffffffffffffffffffffffffffffffff1673ffffffffffffffffffffffffffffffffffffffff163373ffffffffffffffffffffffffffffffffffffffff1614151561095d57600080fd5b6000809054906101000a900473ffffffffffffffffffffffffffffffffffffffff1673ffffffffffffffffffffffffffffffffffffffff16ff5b600160009054906101000a900473ffffffffffffffffffffffffffffffffffffffff1681565b60006109c7610f27565b600160009054906101000a900473ffffffffffffffffffffffffffffffffffffffff1673ffffffffffffffffffffffffffffffffffffffff163373ffffffffffffffffffffffffffffffffffffffff16141515610a2357600080fd5b60806040519081016040528087815260200186600019168152602001858152602001848152509050610a5481610e08565b15610ade578060046000888152602001908152602001600020600082015181600001556020820151816001019060001916905560408201518160020155606082015181600301559050507f6770397cf8581b9596e7c96436ebe004d3324516d97996fbecd02970dc2cbd27866040518082815260200191505060405180910390a160019150610ae3565b600091505b50949350505050565b60035481565b60008060006004600085815260200190815260200160002060010154600460008681526020019081526020016000206002015460046000878152602001908152602001600020600301549250925092509193909250565b600080600160009054906101000a900473ffffffffffffffffffffffffffffffffffffffff1673ffffffffffffffffffffffffffffffffffffffff163373ffffffffffffffffffffffffffffffffffffffff16141515610ba857600080fd5b60046000858152602001908152602001600020600301549050610bd48382610dd390919063ffffffff16565b60046000868152602001908152602001600020600301819055507f6d455be53d3397d23e61c2a0c7e836e082be1ee47d776074f71f7121417041d2846004600087815260200190815260200160002060030154604051808381526020018281526020019250505060405180910390a1600191505092915050565b6000600254905090565b6000600160009054906101000a900473ffffffffffffffffffffffffffffffffffffffff1673ffffffffffffffffffffffffffffffffffffffff163373ffffffffffffffffffffffffffffffffffffffff16141515610cb657600080fd5b600354905090565b600160009054906101000a900473ffffffffffffffffffffffffffffffffffffffff1673ffffffffffffffffffffffffffffffffffffffff163373ffffffffffffffffffffffffffffffffffffffff16141515610d1a57600080fd5b610d2381610e2d565b50565b600160009054906101000a900473ffffffffffffffffffffffffffffffffffffffff1673ffffffffffffffffffffffffffffffffffffffff163373ffffffffffffffffffffffffffffffffffffffff16141515610d8257600080fd5b8073ffffffffffffffffffffffffffffffffffffffff16ff5b600080831415610dae5760009050610dcd565b8183029050818382811515610dbf57fe5b04141515610dc957fe5b8090505b92915050565b60008183019050828110151515610de657fe5b80905092915050565b6000828211151515610dfd57fe5b818303905092915050565b6000808260400151118015610e265750600082602001516000191614155b9050919050565b600073ffffffffffffffffffffffffffffffffffffffff168173ffffffffffffffffffffffffffffffffffffffff1614151515610e6957600080fd5b8073ffffffffffffffffffffffffffffffffffffffff166000809054906101000a900473ffffffffffffffffffffffffffffffffffffffff1673ffffffffffffffffffffffffffffffffffffffff167f8be0079c531659141344cd1fd0a4f28419497f9722a3daafe3b4186f6b6457e060405160405180910390a3806000806101000a81548173ffffffffffffffffffffffffffffffffffffffff021916908373ffffffffffffffffffffffffffffffffffffffff16021790555050565b6080604051908101604052806000815260200160008019168152602001600081526020016000815250905600a165627a7a72305820e2db6f83af2c1b2dde4b7ae7d309c4142cf271267abff3776beb278d0bb70dcb0029a165627a7a723058208abacf1493d80642df08254d47a1a7743347965a119e76450c08e8ee451d9bb10029",
  "source": "pragma solidity ^0.4.24;\n\nimport \"./Store.sol\";\n\ncontract StoreFactory {\n\n    mapping(address => bool) admins;\n    mapping(address => bool) storeOwners;\n    mapping(address => address[]) stores;\n\n    address[] public allStores;\n\n    //Events\n    event LogStoreCreated(address indexed store, address indexed storeOwner);\n\n    constructor() public {\n        admins[msg.sender] = true;\n    }\n\n    modifier onlyOwner() {\n        require(admins[msg.sender] == true);\n        _;\n    }\n\n    modifier onlyStoreOwner() {\n        require(storeOwners[msg.sender] == true);\n        _;\n    }\n\n    function getUserRole() public view returns (bytes32) {\n        address sender = msg.sender;\n        if (admins[sender] == true) {\n          return \"admin\";\n        }\n        if (storeOwners[sender] == true) {\n          return \"storeOwner\";\n        }\n        return \"shopper\";\n    }\n\n    function addAdmin(address newAdmin) public onlyOwner returns (bool success){\n        require(admins[newAdmin] == false);\n        admins[newAdmin] = true;\n        return true;\n    }\n\n    function addStoreOwner(address newStoreOwner) public onlyOwner returns (bool success) {\n        if (storeOwners[newStoreOwner] == false) {\n            storeOwners[newStoreOwner] = true;\n            return true;\n        }\n        return false;\n    }\n\n    function createStore(bytes32 name) public onlyStoreOwner returns (bool) {\n        if (name.length != 0) {\n          Store store = new Store(msg.sender, name);\n          stores[msg.sender].push(store);\n          allStores.push(store);\n          emit LogStoreCreated(store, msg.sender);\n          return true;\n        }\n        return false;\n    }\n\n    function getStores() public view returns (address[] myStores) {\n        if (storeOwners[msg.sender] == true) {\n            return stores[msg.sender];\n        } else {\n            return allStores;\n        }\n    }\n\n}\n",
  "sourcePath": "/Users/deboravilla/Desktop/rodrigo/StoreProject/contracts/StoreFactory.sol",
  "compiler": {
    "name": "solc",
    "version": "0.4.24+commit.e67f0147.Emscripten.clang"
  },
  "schemaVersion": "2.0.1",
  "updatedAt": "2018-08-26T12:31:31.721Z"
}